:100000000C94AC070C94F3070C94F3070C94F307CF
:100010000C94F3070C94F3070C94F3070C94F30778
:100020000C94F3070C94F3070C94CA210C949D22B2
:100030000C9436190C94F3070C94F3070C94F30703
:100040000C94F3070C94F3070C94F3070C94F30748
:100050000C94F3070C949E190C94F3070C94F3077B
:100060000C94F3070C94F3070C94F3070C94F30728
:100070000C94F3070C94F3070C94F3070C94F30718
:100080000C94F3070C94F3070C94F3070C94F30708
:100090000C94F3070C94F3070C94F3070C94F307F8
:1000A0000C94F3070C94F3070C94F3073A003B000D
:1000B0003C003D003E003F00400047001F004C0058
:1000C0005700E100000041004200430044004500A9
:1000D0006800690000411E002E005400E0002C0062
:1000E0006A006B0050004F0051004E00E6004800CF
:1000F0002D002A006300E5000000210022002300FB
:100100002400250026002700290056002000580062
:100110000000E000140008001A001500130017008A
:1001200018001C000C002B006100300012001600AB
:10013000090007000A000B000D000E002C000F0044
:1001400004002F003300550006001B0019001100A9
:1001500010000500370036001D0038003100530044
:10016000280059005A005B005C005D005E005F00E3
:10017000340060006200490052004B000070010032
:100180000100010001000100010001000100010067
:100190000100010000000100010001000100010058
:1001A0000100010001000100010001000100010047
:1001B0000100010001000100010001000100010037
:1001C0000100010001000100000001000100010028
:1001D00001000100010001003500010001000100E3
:1001E000000039000100010052000100010001007F
:1001F00001000100010001000100010001005100A7
:1002000001004F0001000100010001000100010098
:100210005000010001000100010001000100010087
:1002200001000100010001000100010001000100C6
:1002300001000100010001000100010001000100B6
:1002400001000100010001000100010001000100A6
:100250000100010001000100010001000100010096
:100260000100010000000100010001000100010087
:100270000100010001000100010001000100010076
:100280000100010001000100010001000100010066
:100290000100010001000100000001000100010057
:1002A0000100010001000100010001000100010046
:1002B0000000010001000100010001000100010037
:1002C0000100010001000100010001000100010026
:1002D0000100010001000100010001000100010016
:1002E0000100010001000100010001000100010006
:1002F00001000100010001000100010001000100F6
:1003000001000100010001000100010001000100E5
:1003100001000100010001000100010001000100D5
:1003200001000100010001000100010001000100C5
:1003300001000100000001000100010001000100B6
:1003400001000100010001000100010001000100A5
:100350000100010001000100010001000100010095
:100360000100010001000100000001000100010086
:100370000100010001000100010001000100010075
:100380000000010001000100010001000100010066
:100390000100010001000100010001000100010055
:1003A0000100010001000100010001000100010045
:1003B0000100010001000100010001000100010035
:1003C0000100010001000100010001000100010025
:1003D0000100010001000100010001000100010015
:1003E0000100010001000100010001000100010005
:1003F00001000100010001000100010001000100F5
:1004000001000100000001000100010001000100E5
:1004100001000100010001000100010001000100D4
:1004200001000100010001000100010001000100C4
:1004300001000100010001000000010001000100B5
:1004400001000100010001000100010001000100A4
:100450000000010001000100010001000100010095
:100460000100010001000100010001000100010084
:100470000100010001000100010001000100010074
:100480000100010001000100010001000100010064
:100490000100010001000100010001000100010054
:1004A0000100010001000100010001000100010044
:1004B0000100010001000100010001000100010034
:1004C0000100010001000100010001000100010024
:1004D0000100010000000100010001000100010015
:1004E0000100010001000100010001000100010004
:1004F00001000100010001000100010001000100F4
:1005000001000100010001000000010001000100E4
:1005100001000100010001000100010001000100D3
:1005200000000100010001000100010001000100C4
:1005300001000100010001000100010001000100B3
:1005400001000100010001000100010001000100A3
:100550000100010001000100010001000100010093
:100560000100010001000100010001000100010083
:100570000100010001000100010001000100010073
:100580000100010001000100010001000100010063
:100590000100010001000100010001000100010053
:1005A0000100010000000100010001000100010044
:1005B0000100010001000100010001000100010033
:1005C0000100010001000100010001000100010023
:1005D0000100010001000100000001000100010014
:1005E0000100010001000100010001000100010003
:1005F00000000100010001000100010001000100F4
:1006000001000100010001000100010001000100E2
:1006100001000100010001000100010001000100D2
:1006200001000100010001000100010001000100C2
:1006300001000100010001000100010001000100B2
:1006400001000100010001000100010001000100A2
:100650000100010001000100010001000100010092
:100660000100010001000100010001000100010082
:100670000100010000000100010001000100010073
:100680000100010001000100010001000100010062
:100690000100010001000100010001000100010052
:1006A0000100010001000100000001000100010043
:1006B0000100010001000100010001000100010032
:1006C0000000010001000100010001000100010023
:1006D0000100010001000100010001000100010012
:1006E0000100010001000100010001000100010002
:1006F00001000100010001000100010001000100F2
:1007000001000100010001000100010001000100E1
:1007100001000100010001000100010001000100D1
:1007200001000100010001000100010001000100C1
:1007300001000100010001000100010001000100B1
:1007400001000100000001000100010001000100A2
:100750000100010001000100010001000100010091
:100760000100010001000100010001000100010081
:100770000100010001000100000001000100010072
:100780000100010001000100010001000100010061
:100790000000010001000100010001000100010052
:1007A0000100010001000100010001000100010041
:1007B0000100010001000100010001000100010031
:1007C0000100010001000100010001000100010021
:1007D0000100010001000100010001000100010011
:1007E0000100010001000100010001000100010001
:1007F00001000100010001000100010001000100F1
:1008000001000100010001000100010001000100E0
:1008100001000100000001000100010001000100D1
:1008200001000100010001000100010001000100C0
:1008300001000100010001000100010001000100B0
:1008400001000100010001000000010001000100A1
:100850000100010001000100010001000100010090
:100860000000010001000100010001000100010081
:100870000100010001000100010001000100010070
:100880000100010001000100010001000100010060
:100890000100010001000100010001000100010050
:1008A0000100010001000100010001000100010040
:1008B0000100010001000100010001000100010030
:1008C0000100010001000100010001000100010020
:1008D0000100010001000100010001000100010010
:1008E0000100010000000100010001000100010001
:1008F00001000100010001000100010001000100F0
:1009000001000100010001000100010001000100DF
:1009100001000100010001000000010001000100D0
:1009200001000100010001000100010001000100BF
:1009300000000100010001000100010001000100B0
:10094000010001000100010001000100010001009F
:10095000010001000100010001000100010001008F
:10096000010001000100010001000100010001007F
:10097000010001000100010001000100010001006F
:10098000010001000100010001000100010001005F
:10099000010001000100010001000100010001004F
:1009A000010001000100010001000100010001003F
:1009B0000100010000000100010001000100010030
:1009C000010001000100010001000100010001001F
:1009D000010001000100010001000100010001000F
:1009E0000100010001000100000001000100010000
:1009F00001000100010001000100010001000100EF
:100A000000000100010001000100010001000100DF
:100A100001000100010001000100010001000100CE
:100A200001000100010001000100010001000100BE
:100A300001000100010001000100010001000100AE
:100A4000010001000100010001000100010001009E
:100A5000010001000100010001000100010001008E
:100A6000010001000100010001000100010001007E
:100A7000010001000100010001000100010001006E
:100A8000010001000000010001000100010001005F
:100A9000010001000100010001000100010001004E
:100AA000010001000100010001000100010001003E
:100AB000010001000100010000000100010001002F
:100AC000010001000100010001000100010001001E
:100AD000000001000100010001000100010001000F
:100AE00001000100010001000100010001000100FE
:100AF00001000100010001000100010001000100EE
:100B000001000100010001000100010001000100DD
:100B100001000100010001000100010001000100CD
:100B200001000100010001000100010001000100BD
:100B300001000100010001000100010001000100AD
:100B4000010001000100010001000100010001009D
:100B5000010001000000010001000100010001008E
:100B6000010001000100010001000100010001007D
:100B7000010001000100010001000100010001006D
:100B8000010001000100010000000100010001005E
:100B9000010001000100010001000100010001004D
:100BA000000001000100010001000100010001003E
:100BB000010001000100010001000100010001002D
:100BC000010001000100010001000100010001001D
:100BD000010001000100010001000100010001000D
:100BE00001000100010001000100010001000100FD
:100BF00001000100010001000100010001000100ED
:100C000001000100010001000100010001000100DC
:100C100001000100010001000100010001000100CC
:100C200001000100000001000100010001000100BD
:100C300001000100010001000100010001000100AC
:100C4000010001000100010001000100010001009C
:100C5000010001000100010000000100010001008D
:100C6000010001000100010001000100010001007C
:100C7000000001000100010001000100010001006D
:100C8000010001000100010001000100010001005C
:100C9000010001000100010001000100010001004C
:100CA000010001000100010001000100010001003C
:100CB000010001000100010001000100010001002C
:100CC000010001000100010001000100010001001C
:100CD000010001000100010001000100010001000C
:100CE00001000100010001000100010001000100FC
:100CF00001000100000001000100010001000100ED
:100D000001000100010001000100010001000100DB
:100D100001000100010001000100010001000100CB
:100D200001000100010001000000010001000100BC
:100D300001000100010001000100010001000100AB
:100D4000000001000100010001000100010001009C
:100D5000010001000100010001000100010001008B
:100D6000010001000100010001000100010001007B
:100D7000010001000100010001000100010001006B
:100D8000010001000100010001000100010001005B
:100D9000010001000100010001000100010001004B
:100DA00001000100010001000100010012036B00BD
:100DB0006500790062006F0061007200640000004D
:100DC000160371006D006B006200750069006C0015
:100DD00064006500720000000403090409026D004C
:100DE000040100A0FA090400000103010100092127
:100DF000110100012240000705810308000A0904CF
:100E000001000103010200092111010001224D002E
:100E10000705820308000A0904020001030000001C
:100E20000921110100012236000705830308000A89
:100E3000090403000103000000092111010001223F
:100E40003900070584032000011201100100000091
:100E500008EDFE606001000102000105010906A124
:100E600001050719E029E71500250195087501819D
:100E7000020508190129059505750191029501756D
:100E80000391010507190029F71500250195F8754B
:100E9000018102C005010980A10185021601002619
:100EA00003001A81002A8300751095018100C00596
:100EB0000C0901A1018503160100269C021A0100FC
:100EC0002A9C02751095018100C005010902A1014B
:100ED0000901A1000509190129051500250195053C
:100EE0007501810295017503810105010930093100
:100EF0001581257F95027508810609381581257FA2
:100F0000950175088106050C0A38021581257F9523
:100F10000175088106C0C005010906A10105071970
:100F2000E029E715002501950875018102950175F5
:100F3000088101050819012905950575019102959A
:100F400001750391010507190029FF150026FF000F
:100F5000950675088100C00011241FBECFEFDAE0AE
:100F6000DEBFCDBF04B603FE27C080916F02909113
:100F70007002A0917102B09172028730904BA7402D
:100F8000B04BD1F410926F02109270021092710265
:100F90001092720214BE84B7877F84BF0FB6F89494
:100FA000A895809160008861809360001092600035
:100FB0000FBEE0E0F8E3099511E0A0E0B1E0E2EC5B
:100FC000FBE402C005900D92AC33B107D9F722E0E3
:100FD000ACE3B1E001C01D92AF36B207E1F70E9469
:100FE000191F0C94DF250C94000090E080E0089518
:100FF0000895089581E0089580FF0BC0809A889835
:1010000081FF09C0819A899882FF07C0849A8C98D1
:1010100008958098F4CF8198F6CF8498F8CF81E036
:1010200008950C94FA070E94AF112FEF84E39CE01F
:10103000215080409040E1F700C000000C94C3199B
:10104000FF920F931F93CF93DF938C01FC01C0811C
:10105000D1818091880181113FC082818823B9F1BB
:10106000CE010E941617F82E682FCE010E94BC16E2
:10107000BE018F2D0E946709EC01B8010E94110882
:10108000882309F44AC0B801CE010E94770B882357
:1010900009F443C0C531F0E7DF0718F5C23080E737
:1010A000D80708F04BC0C115E0E7DE0789F1C13071
:1010B000D047D1F181E080933E0180933F01C80188
:1010C000DF91CF911F910F91FF900C940F08CE01EB
:1010D0000E94EB16F82ECCCFCE010E941617BE014F
:1010E000C9CFCC3380E7D80709F4ACC0CD33D047A3
:1010F00009F7F8018281882309F4CBC010923F01DF
:101100000E94681990933D0180933C0180E2A7C042
:10111000F801828181110E94130880E0DF91CF9154
:101120001F910F91FF900895F80182818823A9F300
:1011300080912F02816080932F02EFCFF80182818E
:10114000882309F4BCCF0E94C718811102C00E94F5
:10115000AD180E94E41890E09093610280936002C1
:10116000FE01E350F047809160028160E231F105B9
:10117000C8F4E354F74F0C948F25CF08DB08DF0841
:10118000E308E708EB08EF08F308F708FB08FF0897
:10119000030907090B090F09130917091B09809196
:1011A0006002826080936002809160020E94E81871
:1011B0000E94AF11B2CF809160028460F3CF809122
:1011C00060028860EFCF809160028061EBCF8091F8
:1011D00060028062E7CF809160028064E3CF8091FB
:1011E00060028068DFCF809160028460EACF8091E6
:1011F00060028E7FD7CF809160028D7FD3CF8091A8
:1012000060028B7FCFCF80916002877FCBCF8091B0
:1012100060028F7EC7CF809160028F7DC3CF8091A7
:1012200060028F7BBFCF809160028F77BBCF8091B0
:1012300060028B7FEACF90916002892F97FB87F93C
:101240008058B0CFF8018281882361F010923E016E
:101250000E94681990933D0180933C0182E00E94B6
:10126000390F5BCF80913E0181110FC080913C010D
:1012700090913D010E947419883C910530F486E2FA
:101280000E940E0E86E20E94EA0E82E00E94400F4B
:1012900044CF80913F0181110FC080913C0190911A
:1012A0003D010E947419883C910530F487E20E9448
:1012B0000E0E87E20E94EA0E80E2E8CF0C94C60B85
:1012C0000C94C80B0C94FC070C9462090895972F9A
:1012D00070E02DE0929F600D711D1124FB0198E6D6
:1012E000899FE00DF11D1124EE0FFF1FE455FF4F04
:1012F000859194910895FC01EE0FFF1FE455F24F84
:101300008591949108950E9467090E94F60A8115BB
:1013100020E4920708F08DC0811540E3940708F09F
:10132000E8C0803E910508F071C0803C910508F04E
:10133000CCC0883A910580F4853A910508F0CAC07E
:101340008130910509F46EC020F08430910508F0D9
:1013500069C090E080E008958D3B9105D0F7883A10
:10136000910509F404C1893A910509F403C18A3A47
:10137000910509F402C18B3A910509F401C18C3A37
:10138000910509F400C18B3B910509F4FFC08C3B2A
:10139000910509F4FEC08D3A910509F4FDC0803B2A
:1013A000910509F4FCC08E3A910509F4FBC08F3A0F
:1013B000910509F4FAC0813B910509F4F9C0823B1B
:1013C000910509F4F8C0833B910509F4F7C0843B0B
:1013D000910509F4F6C0853B910509F4F5C0863BFB
:1013E000910509F4F4C0873B910509F4F3C0883BEB
:1013F000910509F4F2C0893B910509F4F1C08A3BDB
:10140000910509F4F0C080E094E408958F3F9105C0
:1014100009F048F4803F910508F067C0883E9105C7
:1014200008F097CF0895811520E2920708F05FC079
:101430000895811543E5940760F5811522E592072B
:1014400008F062C0811541E5940708F058C0811585
:1014500020E5920708F450C09C0154E0369527958A
:101460005A95E1F7922F9370482F437021E030E0B6
:1014700002C0220F331F4A95E2F73C68392B86954C
:101480008695837040E2849FC0011124822B932BA8
:101490000895811545E5940750F4811524E59207D8
:1014A00008F446C0982F8827846F906A08958115A4
:1014B00046E5940708F450C09C0130569F702115F2
:1014C000304108F046CF90620895805C91090E94F7
:1014D0007B090895853A910509F443C0863A910540
:1014E00009F042C082E890E40895906508959F70E5
:1014F000EECF9927906C08959F70906A0895982F69
:101500008827816F906A0895AC014370552721E0C8
:1015100030E002C0220F331F4A95E2F78695869588
:1015200040E2849FC0011124822B932B9C68089574
:10153000AC014370552721E030E002C0220F331F79
:101540004A95E2F78695869540E2849FC001112472
:10155000822B932B9A680895982F882788279F714C
:10156000B2CF81E890E4089583E890E4089582EE94
:1015700094E4089589EE94E408958AEE94E408953D
:1015800085EB94E4089586EB94E4089583EB94E46A
:10159000089584EB94E4089587EB94E408958CEC2B
:1015A00094E408958DEC94E4089583E895E4089517
:1015B0008AE895E4089582E995E4089584E995E43C
:1015C000089581E296E4089583E296E4089584E222
:1015D00096E4089585E296E4089586E296E40895F7
:1015E00087E296E408958AE296E41CCF823891055A
:1015F00049F1B0F48133910509F45CC048F48932B3
:10160000910509F452C08A32910509F458C0089531
:101610008533910509F444C08933910599F0089503
:10162000833E910531F138F4803E910591F0823E80
:101630009105B1F00895863E910511F1873E91051F
:1016400041F10895209160022370C9F080EE90E08E
:1016500008952091600220FF12C089E390E0089570
:101660002091600222FF0BC024FF2EC090E080E09A
:1016700008952091600222FD2AC024FDF7CF08952D
:101680002091600223FFFBCF24FDF0CF87EE90E096
:1016900008952091600223FFF0CF86EE90E0089538
:1016A0002091600225FD16C008952091600225FD5D
:1016B00014C008952091600226FD12C00895209163
:1016C000600226FD10C0089583EE90E0089582EE3A
:1016D00090E0089589E290E0089585E390E0089510
:1016E0008AE290E0089581E390E0C9CF08950F93D6
:1016F0001F93CF938C01FB018281811106C0C1E051
:101700008C2FCF911F910F910895C0914D01C11160
:1017100025C00531104799F70E94760B81E0809330
:101720004D010E94681990934C0180934B011092D7
:101730004001109242011092410110924401109216
:1017400043011092460110924501109248011092F7
:10175000470110924A0110924901D2CF80914B016A
:1017600090914C010E947419883C910540F680913B
:101770004001E82FF0E0EE0FFF1FEF5BFE4F1183FB
:1017800000838F5F80934001C0E0BACF0C94F807CC
:101790000C94F90785B7806885BF85B7806885BFD9
:1017A000A0E2B1E061E070E08D91E82FE295EF708A
:1017B000F0E041A18F709B0101C0220F8A95EAF7EA
:1017C000922F9095942391A382A1822B82A381E0F2
:1017D000A832B80749F7A3E1B1E061E070E08D916C
:1017E000E82FE295EF70F0E041A18F709B0101C0FE
:1017F000220F8A95EAF7922F9095942391A382A1C4
:10180000822B82A381E0A032B80749F7EEE5F1E030
:10181000AEE4B1E08EE691E0119211921D921D921C
:101820008E179F07C9F70C945E094F925F927F92C3
:101830008F929F92AF92BF92CF92DF92EF92FF92E0
:101840000F931F93CF93DF930EE411E090E2E92E04
:1018500091E0F92EE801CC24C394D12C99249394DF
:10186000A880B98019821882D7018D917D01E82F57
:10187000E295EF70F0E091A18F70960101C0220F08
:101880008A95EAF7892F822B81A382A1822E8094E8
:10189000882182A3B0EABA95F1F783E1482E81E06E
:1018A000582E90E080E0D2017D912D01472F429586
:1018B0004F7050E0DA0190967C90488159817F709A
:1018C000D60102C0AA0FBB1F7A95E2F7BD016721BE
:1018D00009F057C0B601082E02C0660F771F0A94A0
:1018E000E2F7462B572B5983488301968D3091059B
:1018F000D1F681A1882281A282A1282B22A38881EE
:101900009981A816B90641F090926E010E9468195B
:101910009093700180936F012296B8E2EB16B1E0CC
:10192000FB0609F09DCF80916E018823B9F080916C
:101930006F01909170010E947419069778F0EEE59E
:10194000F1E08EE591E0D8012D913D918D0121933B
:1019500031938A179B07B9F710926E010E946009B4
:1019600081E0DF91CF911F910F91FF90EF90DF9079
:10197000CF90BF90AF909F908F907F905F904F904F
:10198000089570E060E0ADCFE82FF0E0EE0FFF1FAC
:10199000E25AFE4F808191810895089590937601D7
:1019A000809375010895E0917501F091760130976B
:1019B00021F00190F081E02D099480E00895E091FC
:1019C0007501F0917601309721F00280F381E02DCE
:1019D00009940895E0917501F0917601309721F016
:1019E0000480F581E02D09940895209173013091D0
:1019F00074012817390771F0909374018093730173
:101A0000E0917501F0917601309721F00680F78121
:101A1000E02D0994089520917101309172012817E9
:101A2000390771F09093720180937101E091750113
:101A3000F0917601309721F00084F185E02D099432
:101A4000089508950C94210D0E945F190E94CA0BFD
:101A50000C94301A5F926F927F928F929F92AF9206
:101A6000BF92CF92DF92EF92FF920F931F93CF938B
:101A7000DF93CDB7DEB72A970FB6F894DEBF0FBE5F
:101A8000CDBF0E94150C98E7A92E91E0B92E10E069
:101A900000E088248394912C502E802F0E94C40C47
:101AA0007C01F501C190D1905F01C816D90609F4F7
:101AB0005EC080912F0281FD0E94CD0C90E080E0FD
:101AC000CE24DF243401082E02C0660C771C0A9451
:101AD000E2F7960126213721232B09F443C08E8398
:101AE0005F82E620F72081E0EF2809F480E0888714
:101AF0000E9468198160782F9A8789874E815F815B
:101B000068858A850E94E40D000F111FF801E858CE
:101B1000FE4F8081918168267926718260820E94C1
:101B2000B31C0E94D30C909177018917B9F10E94E0
:101B3000D30C809377012A960FB6F894DEBF0FBEC0
:101B4000CDBFDF91CF911F910F91FF90EF90DF906C
:101B5000CF90BF90AF909F908F907F906F905F904D
:101B60000C94640901968D30910509F0ABCF0F5F9D
:101B70001F4F0830110509F08FCF8FEF89838A83BB
:101B80001B820E9468198160782F9D838C83498114
:101B90005A816B818D810E94E40DC1CF2A960FB6C8
:101BA000F894DEBF0FBECDBFDF91CF911F910F9193
:101BB000FF90EF90DF90CF90BF90AF909F908F906D
:101BC0007F906F905F900895CF93DF93CDB7DEB78E
:101BD0002B970FB6F894DEBF0FBECDBF4F8358874B
:101BE00069877A878B871E821D8285E0FE01379682
:101BF000DE01119601900D928A95E1F749815A8193
:101C00006B817C818D819E812B960FB6F894DEBF0F
:101C10000FBECDBFDF91CF910C946114882309F4DE
:101C2000D8C0823871F40E94D30C81FDD2C089E300
:101C30000E94B6170E947E1889E30E94F3170C9445
:101C40007E18833859F40E94D30C80FDC2C083E50E
:101C50000E94B6170E947E1883E5EFCF843859F4AE
:101C60000E94D30C82FDB5C087E40E94B6170E9483
:101C70007E1887E4E2CF9CEF980F913A18F40E9407
:101C8000B617DDCF90E2980F983050F4877091E04E
:101C900001C0990F8A95EAF7892F0E943518CFCF96
:101CA0009BE5980F933070F4853A31F0863A39F01D
:101CB00083E890E00C94F50C81E890E0FBCF82E89B
:101CC00090E0F8CF98E5980F953108F082C0883AF7
:101CD00009F440C0893A09F440C08A3A09F440C086
:101CE0008B3A09F440C08C3A09F440C08B3B09F4AC
:101CF00040C08C3B09F440C08D3A09F440C0803BA1
:101D000009F440C08E3A09F440C08F3A09F440C04B
:101D1000813B09F440C0823B09F440C0833B09F495
:101D200040C0843B09F440C0853B09F440C0863B79
:101D300009F440C0873B09F440C0883B09F440C027
:101D4000893B09F440C08A3B09F440C090E080E040
:101D50000C940B0D82EE90E0FBCF89EE90E0F8CF73
:101D60008AEE90E0F5CF85EB90E0F2CF86EB90E045
:101D7000EFCF83EB90E0ECCF84EB90E0E9CF87EB03
:101D800090E0E6CF8CEC90E0E3CF8DEC90E0E0CFFC
:101D900083E891E0DDCF8AE891E0DACF82E991E053
:101DA000D7CF84E991E0D4CF81E292E0D1CF83E232
:101DB00092E0CECF84E292E0CBCF85E292E0C8CF32
:101DC00086E292E0C5CF87E292E0C2CF8AE292E05B
:101DD000BFCF0895882309F44BC0823871F40E9464
:101DE000D30C81FF45C089E30E94B6170E947E187C
:101DF00089E30E94F3170C947E18833859F40E94EB
:101E0000D30C80FF35C083E50E94B6170E947E1870
:101E100083E5EFCF843859F40E94D30C82FF28C0A9
:101E200087E40E94B6170E947E1887E4E2CF9CEFF9
:101E3000980F913AF0F290E2980F983050F4877032
:101E400091E001C0990F8A95EAF7892F0E943B180B
:101E5000D2CF9BE5980F933020F490E080E00C9473
:101E6000F50C885A853120F490E080E00C940B0D3D
:101E70000895882321F00E9435180C947E18089547
:101E8000882321F00E943B180C947E1808958F92AD
:101E90009F92AF92BF92DF92EF92FF920F931F93A8
:101EA000CF93DF937C01D62FC72FFC0105810295CC
:101EB0000F70128111110E9454180E94AF17D82E72
:101EC000882371F0112321F180E28D0F883000F119
:101ED00082E00E9499170E94AF1791E0D82ED92670
:101EE000EC2FE295EF70F0E0E858F04F0C948F255E
:101EF0008A0F8A0FDA0FDA0F1C103810B70FB70FDE
:101F00004310B70FDB10DB104E11B70FB70F57118F
:101F1000D12CE6CF0C2F0F70C07F11F00295007FFF
:101F20001123A9F0002359F080E28D0F883010F0C2
:101F3000D11109C0802F0E9435180E947E188D2F64
:101F40000E940E0E14C0802F0E944618F6CF8D2FCF
:101F50000E94EA0E002359F080E28D0F883010F0C5
:101F6000D11124C0802F0E943B180E947E18DD20D2
:101F700009F4A4C10E948C1780FDA0C1F701128250
:101F80000E9486170E940016C7010E946A110E94D3
:101F90008617DF91CF911F910F91FF90EF90DF9007
:101FA000BF90AF909F908F900C942116802F0E942D
:101FB0004C18DBCFFC2FFF70BF2EC07FC03219F052
:101FC000B29480EFB822DD2369F0D13029F11123DA
:101FD00069F1002359F0F701858180FFB0CF8F7040
:101FE000858304C0112361F0011104C08B2D0E9470
:101FF000390FBDCF8B2D0130D1F70E946818B7CFB4
:10200000011106C00E946B188B2D0E94400FAFCFAC
:10201000013009F4ACCFF6CF112321F0063008F0DF
:10202000A6CFE4CF053008F0A2CFEECF002361F3B6
:102030008D2F0E94EA0E9BCF8C2F869586958370FC
:1020400069F0813009F093CF8D2F9C2F937011117F
:1020500002C090E080E00E940B0D89CF8D2F9C2F55
:102060009370111102C090E080E00E94F50C7FCFC8
:102070008D2F112329F00E94BC1B0E94A81C77CF32
:102080000E94241CFACF8C2F837009F047C01111D5
:102090006ECF2D2F229526952770220F220F6D2FA0
:1020A0006F70862E912CB12CA12C022E04C0880CAE
:1020B000991CAA1CBB1C0A94D2F760E070E0CB010B
:1020C000D4FF0FC06FE070E080E090E004C0660FC6
:1020D000771F881F991F2A95D2F760957095809574
:1020E0009095C695C695C370C23051F080F46829AA
:1020F00079298A299B29C13071F00E94A91537CF0F
:10210000682979298A299B290E94C51530CF0E9408
:10211000A915C501B4010E948D1529CF86951123FB
:1021200011F08C2F8170882309F421CF2D2F229557
:1021300026952770220F220F6D2F6F70862E912CFF
:10214000B12CA12C022E04C0880C991CAA1CBB1C0B
:102150000A94D2F760E070E0CB01D4FF0FC06FE0CB
:1021600070E080E090E004C0660F771F881F991F21
:102170002A95D2F76095709580959095C695C695ED
:10218000C370C23051F080F4682979298A299B29CB
:10219000C13071F00E948316EACE682979298A2914
:1021A0009B290E949F16E3CE0E948316C501B401AD
:1021B0000E946716DCCEE0E2ED0FE53108F062C068
:1021C000F0E0EB51FF4E0C948F25FA10FA10FA1044
:1021D000FA10FA10FA10FA10FA10FA10FA10FA10AF
:1021E000FA10FA10FA10FA10FA10071115111C1152
:1021F00023112D11DF708C2F8F71112321F00E947C
:1022000000168D2FF4CE0E9421168D2FFECE1123A5
:1022100041F0053008F0ABCE8C2F8F710E9446162E
:10222000A6CE063008F0A3CEF7CF8C2F8F711123E6
:1022300039F00E9400169BCE8C2F8F711123C9F3A9
:102240000E94211694CE112329F08C2F8F710E94A9
:10225000EB158DCE0E94E1158ACE112349F0CF7186
:102260008C2F0E94001663E08C2F0E9490177FCE67
:1022700081E00E949917023008F479CE82E00E9432
:10228000991775CE112329F0011159CE8C2F8F711A
:10229000D0CF0111CDCE8C2F8F71D2CF4C2F4F705C
:1022A0006D2FC7010E94F5070E940A1560CE4C2FC2
:1022B0004F706D2FC7010E94660959CEDF91CF91F3
:1022C0001F910F91FF90EF90DF90BF90AF909F9084
:1022D0008F9008950F931F93CF93DF93EC01988114
:1022E00089812B813C81232B39F08F3F19F481E0C8
:1022F0009F3F19F080E001C081E080FD17C0CE0152
:102300000E942008882391F0688179818A810E9447
:1023100062178C010E94BB160E948215B801CE0183
:10232000DF91CF911F910F910C94470FDF91CF91C7
:102330001F910F9108950E9454180E9465180E94E1
:1023400027180E947E180E94551D0E94A81C90E02C
:1023500080E00E94F50C90E080E00C940B0D0E9450
:1023600043180C949B110E945817E92FE295EF70C7
:10237000E250EE30E0F4F0E0E054FE4E0C948F2595
:10238000CE11CE11D711D711D911D711D711D7111D
:10239000CE11CE11DE11D711D711DE11803F19F009
:1023A00020F4803E20F481E00895843FE1F380E052
:1023B0000895803EC0F3813FD1F7F5CF93FB882786
:1023C00080F90895CF93DF9300D000D01F92CDB74E
:1023D000DEB70F900F900F900F900F90DF91CF917D
:1023E0000895CF93DF9300D000D000D0CDB7DEB7F3
:1023F00026960FB6F894DEBF0FBECDBFDF91CF910A
:1024000008951F93CF93DF93C091890116E08091C7
:102410008A018C1304C0DF91CF911F910895D0E001
:102420001C9FF0011D9FF00D1124E557FE4F4081C8
:10243000518162817381848195810E94F11121967D
:10244000C770E5CF4091BB015091BC016091BD01C7
:102450007091BE018091BF019091C0010C94F11167
:102460001F93CF93DF938091C001807FD1F480913F
:10247000BD018823B1F080918901D0918A01B0918A
:10248000BB01C091BC014091BE015091BF01A1E0D0
:10249000BF3F09F0A0E0BA016095709516E0D8132F
:1024A00004C0DF91CF911F91089521E0411551059E
:1024B00021F02A2FCF3F09F020E090E020FD38C026
:1024C000189FF001199FF00D1124E557FE4F21814F
:1024D0002C132EC020812B132BC02281211128C048
:1024E000238134812417350700F1241B350B283C48
:1024F0003105F0F42091C0012F7020612093C001BC
:1025000026E0289FF001299FF00D1124E057FE4F8F
:1025100080818F70806180838BEB91E00E946A11D3
:10252000DF91CF911F910C940112260F371FDFCF3F
:1025300001968770B4CFAF92BF92CF92DF92EF92A5
:10254000FF920F931F93CF93DF93CDB7DEB76197C1
:102550000FB6F894DEBF0FBECDBF8C0185E0F80149
:10256000DE011D9601900D928A95E1F7D8014C91FC
:1025700011965C9111971296EC903091BB0160918D
:10258000BC018091BE019091BF0121E0009731F024
:102590006F3F19F421E03F3F09F020E0B22FB17006
:1025A000BB2E20FD80C1F801C380D480A090BD0166
:1025B000AA2009F427C1C816D906D0F1D601A81B54
:1025C000B90BCD01FF24F394883C910508F0F12C60
:1025D0008091C001982F907FFF2009F4CAC091110B
:1025E00087C0FE2C651329C0341327C0E11025C015
:1025F0008F7080618093C0010E9422128BEB91E06A
:102600000E946A118091C001F80185838F2D619627
:102610000FB6F894DEBF0FBECDBFDF91CF911F91F3
:102620000F91FF90EF90DF90CF90BF90AF90089503
:10263000809590958C0D9D1DC5CF81E0CD2831F002
:102640005F3F19F481E04F3F09F080E080FD24C036
:1026500081E08E25F82FF170DF2E80FF3FC0809142
:10266000890120918A0136E0821318C04D875E8768
:102670008D859E850E945817292F22952F70223014
:1026800008F1243030F59F7009F1D80115969C911E
:10269000907FE1F4FB2CBACF80E0DCCF90E0389F54
:1026A000F001399FF00D1124E557FE4F618156135B
:1026B00006C06081461303C062816E110FC001968F
:1026C0008770D2CF9F7011F0882321F3805E88300D
:1026D00008F3C8010E946A11BD2CDCCFEE2009F47A
:1026E00095CF8091C00181608093C001F12C8ECF85
:1026F000651312C0341310C0E1100EC0F8018583B9
:10270000C8010E946A1186E0F801ABEBB1E00190CC
:102710000D928A95E1F741C04D875E878D859E8534
:102720000E94B311882309F4C8C0EE2009F4C5C083
:102730008091C001803270F02091BB013091BC01CA
:1027400038872F831986DB86CA868C87CE01079649
:102750000E946A1186E0F801ABEBB1E001900D92A6
:102760008A95E1F70E9430120E942212FF24F3940E
:102770004DCF911115C07C2DD98AC88A6E2D8989BB
:102780000E94E2118BEB91E00E946A1186E0EBEB74
:10279000F1E0DF011D928A95E9F70E94221236CFFF
:1027A000651312C0341310C0E1100EC0F801858308
:1027B000C8010E946A11EBEBF1E086E0DF011D9297
:1027C0008A95E9F7FA2C22CF4D875E878D859E8505
:1027D0000E94B311882309F470C0EE2009F46DC083
:1027E0008091C001803208F4B5CF2091BB013091B7
:1027F000BC013A8329831B82DD82CC828E83CE0189
:102800000196A6CFC816D90638F1F601E81BF90BD8
:10281000CF01F12C883C910508F03DC0FE2CEE2044
:1028200009F44BC0651326C0341324C08091C00145
:1028300080FD17C0982F907FA1F0D80115968C933A
:102840001597903F09F45CCF982F907F905F8F7021
:10285000892B15968C9354CF809590958C0D9D1D4A
:10286000D8CF86E0F801ABEBB1E001900D928A95EC
:10287000E1F7CCCE4D875E878D859E850E94B31192
:10288000811168CF8091C00181608093C001C8012F
:102890000E946A11BBCE7C2DD98AC88A6E2D898987
:1028A0000E94E21173CFEE2041F04D875E878D8547
:1028B0009E850E94B31181114DCFC8010E946A11FB
:1028C00055CF1F93CF93DF93CDB7DEB72C970FB6BD
:1028D000F894DEBF0FBECDBF4F83588769877A87D4
:1028E0008B879C87CE0107960E949B12882309F450
:1028F00042C09F8188852A853B85232B39F08F3FF5
:1029000019F481E09F3F19F080E001C081E080FD73
:1029100008C04F81588569857A858B859C850E9482
:10292000F11116E08091890190918A01891709F4CB
:1029300067C0819FC001112485579E4F0E949B1242
:10294000882309F45DC0E09189011E9FF0011124E4
:10295000E557FE4F40815181628173818481958169
:102960000E94F1118091890190E00196877099276A
:1029700080938901D7CF86E0FE013796DE0111965C
:1029800001900D928A95E1F79F8188852A853B8584
:10299000232B39F08F3F19F481E09F3F19F080E03D
:1029A00001C081E080FDBDCF20918A0130E0C901E6
:1029B000019687709927409189014817190699F067
:1029C00096E0929FD001939FB00D1124A557BE4F62
:1029D000FE01319601900D929A95E1F780938A015C
:1029E0000E9401129ECF0E94AF1110928A01109294
:1029F000890186E0EBEBF1E0DF011D928A95E9F7B2
:102A00002C960FB6F894DEBF0FBECDBFDF91CF91ED
:102A10001F910895EF92FF920F931F93CF93DF932F
:102A20008C01892B81F0F12CEE24E394E8012196AE
:102A3000F8018491843770F4843008F05FC08130ED
:102A4000B1F08230A1F1DF91CF911F910F91FF90F2
:102A5000EF900895853709F44CC008F43DC09CE719
:102A6000980F903780F78F770E94EA0E49C00E5F6B
:102A70001F4FFE01849190E2980F983060F48770A8
:102A8000FE2D01C0FF0F8A95EAF78F2F0E9457187D
:102A90000E947E1802C00E940E0E8F2D815030F2CF
:102AA000EFE9FFE03197F1F700C00000F7CF0E5FCC
:102AB0001F4FFE01849190E2980F983050F4877078
:102AC000FE2D01C0FF0F8A95EAF78F2F0E945D1837
:102AD000DFCF0E94EA0EE1CF0E5F1F4FFE01C491CF
:102AE000C150D8F28FE99FE00197F1F700C00000D4
:102AF000F7CF0E5F1F4FFE01F490CFCF0E940E0E56
:102B00008E01CBCF089560930602709307028093E5
:102B10000802909309020C949B110F931F9300914C
:102B20000602109107022091080230910902DC018F
:102B3000CB01802B912BA22BB32B80930602909379
:102B40000702A0930802B09309021F910F910C9401
:102B50009B110F931F930091060210910702209181
:102B6000080230910902DC01CB0180239123A223CA
:102B7000B3238093060290930702A0930802B093B8
:102B800009021F910F910C949B110F931F930091B9
:102B90000602109107022091080230910902DC011F
:102BA000CB0180279127A227B32780930602909319
:102BB0000702A0930802B09309021F910F910C9491
:102BC0009B111092020210920302109204021092C2
:102BD00005020C949B1141E050E060E070E004C0FD
:102BE000440F551F661F771F8A95D2F74093020244
:102BF0005093030260930402709305020C949B119E
:102C000041E050E060E070E004C0440F551F661FD3
:102C1000771F8A95D2F78091020290910302A091CA
:102C20000402B0910502842B952BA62BB72B809321
:102C3000020290930302A0930402B09305020C9445
:102C40009B1141E050E060E070E004C0440F551F6C
:102C5000661F771F8A95D2F74095509560957095BD
:102C60008091020290910302A0910402B0910502AA
:102C700084239523A623B723809302029093030213
:102C8000A0930402B09305020C949B1141E050E024
:102C900060E070E004C0440F551F661F771F8A95DF
:102CA000D2F78091020290910302A0910402B091A8
:102CB000050284279527A627B727809302029093C1
:102CC0000302A0930402B09305020C949B110F938E
:102CD0001F9300910202109103022091040230918F
:102CE0000502DC01CB01802B912BA22BB32B80930F
:102CF000020290930302A0930402B09305021F9175
:102D00000F910C949B110F931F930091020210914D
:102D100003022091040230910502DC01CB018023E3
:102D20009123A223B3238093020290930302A093E2
:102D30000402B09305021F910F910C949B110F9305
:102D40001F9300910202109103022091040230911E
:102D50000502DC01CB0180279127A227B3278093AE
:102D6000020290930302A0930402B09305021F9104
:102D70000F910C949B1108952DE0929F800D1124CA
:102D8000982F977071E001C0770F9A95EAF78695B2
:102D90008695869525E0829FC001112450E040E091
:102DA000A62FB0E0FC01E40FF51FEF53FE4F60814A
:102DB0009D01042E02C0369527950A94E2F72170F2
:102DC000219526272723262720834F5F5F4F4530F5
:102DD000510541F708952DE0929F800D1124982F01
:102DE000977086958695869525E0829FA00111248F
:102DF00070E060E080E0FA01E60FF71FEF53FE4F4E
:102E0000208130E0092E02C0369527950A94E2F71A
:102E100021703327062E01C0220F0A94EAF7822B75
:102E20006F5F7F4F6530710531F70895BF92CF9284
:102E3000DF92EF92FF920F931F93CF93DF938C015A
:102E4000C0900202D0900302E0900402F0900502CC
:102E50008091060290910702A0910802B0910902A8
:102E6000C82AD92AEA2AFB2ACFE1D0E0BC2ED70112
:102E7000C6010C2E04C0B695A795979587950A9420
:102E8000D2F780FD0EC0219788F7B12C8B2DDF91F2
:102E9000CF911F910F91FF90EF90DF90CF90BF9057
:102EA0000895B8018C2F0E948309019761F3EECF3A
:102EB000CF93DF93EC010E941617BE01DF91CF91F3
:102EC0000C9483091F93CF93DF93EB0190918801BA
:102ED000992331F0CB01DF91CF911F910C945817BA
:102EE000882379F0CB010E941617182F682FCE0186
:102EF0000E94BC16BE01812FDF91CF911F910C94CF
:102F00008309CB010E94EB16182FF4CF80910A029F
:102F1000859585958595089580910A028770089515
:102F200098E0899F90011124622B60930A020C940F
:102F3000001690910A028095892380930A02282F17
:102F4000277061F4282F082E000C330B92171306FC
:102F500029F08595859585950C9421160895909175
:102F60000A02977081E009F480E0089590911201BF
:102F70009923E1F09091600297FF18C0E82FE69541
:102F8000E695E695EF3139F120910001309101018C
:102F9000E20FF32FF11D877021E030E001C0220F16
:102FA0008A95EAF78181822B81830895209100011F
:102FB00030910101F90132969FEF40E05191851760
:102FC00051F09F3F19F4511101C0942F4F5F4E31C2
:102FD000A9F79F3F09F40895290F311D97FD3A95F0
:102FE000F90182830895909112019923F1F0909153
:102FF000600297FF1AC0E82FE695E695E695EF3157
:1030000029F12091000130910101E20FF32FF11D10
:10301000282F277081E090E001C0880F2A95EAF7F9
:1030200080959181892381830895209100013091B9
:103030000101F9013296205E3F4F9191891303C03F
:10304000DF0111971C92E217F307B9F7089581E0A9
:1030500090E0E0910001F0910101E80FF91F10826A
:10306000019680329105A9F7089590912E02892B3F
:1030700080932E020895982F909580912E02892397
:1030800080932E02089510922E02089590912D02A1
:10309000892B80932D020895982F909580912D0271
:1030A000892380932D02089510922D020895909106
:1030B0002C02892B80932C020895982F9095809153
:1030C0002C02892380932C02089510922C020895DB
:1030D00080930B02089510920B0208952091000135
:1030E00030910101F9013196205E3F4F80E09191CE
:1030F00091118F5FE217F307D1F70895E091000176
:10310000F091010180912E028083E0910001F09105
:103110000101808190912D02892B8083E091000133
:10312000F0910101808190912C02892B80839091F4
:103130000B02992361F0E0910001F091010180817F
:10314000892B80830E946E18811110920B0280914E
:103150000001909101010C94DF0C6DEE7EEF90E088
:1031600080E00E94C92560E082E090E00E94B725DF
:1031700060E083E090E00E94B72560E084E090E0AA
:103180000E94B72560E085E090E00C94B72590E0C0
:1031900080E00E94B12521E08D3E9E4F09F020E0A5
:1031A000822F089582E090E00C94A925682F82E098
:1031B00090E00C94B72583E090E00C94A925682F4B
:1031C00083E090E00C94B72584E090E00C94A9256E
:1031D000682F84E090E00C94B725809166028430DB
:1031E00039F11092300288E190E020E40FB6F894B3
:1031F000A895809360000FBE2093600080E00E943D
:10320000640983B7817F846083BF83B7816083BF94
:103210007894889583B78E7F83BF0FB6F894A8956E
:1032200080916000886180936000109260000FBE02
:10323000089508950895CF930E9419190E94150CBE
:103240000E941A19C0E08C2F0E94C40C892B31F403
:10325000CF5FC830C1F780E0CF91089581E0FCCF07
:103260000E94AF110E94D30C0C9464091F920F921C
:103270000FB60F9211248F939F93AF93BF938091BA
:103280003002811113C080915C0290915D02A09187
:103290005E02B0915F024196A11DB11D80935C0258
:1032A00090935D02A0935E02B0935F02BF91AF91D5
:1032B0009F918F910F900FBE0F901F90189582E0F5
:1032C00084BD93E095BD9AEF97BD80936E000895FD
:1032D0002FB7F89480915C0290915D02A0915E02FC
:1032E000B0915F022FBF0895CF92DF92EF92FF92CD
:1032F0000F931F932FB7F89440915C0250915D0299
:1033000060915E0270915F022FBF6A017B01EE2423
:10331000FF248C0130E020E0C016D106E206F3065F
:1033200050F0481B590BCA011F910F91FF90EF906D
:10333000DF90CF90089541505109F3CF1F920F9223
:103340000FB60F9211248F939F93AF93BF938091E9
:103350005C0290915D02A0915E02B0915F020196C5
:10336000A11DB11D80935C0290935D02A0935E024B
:10337000B0935F02BF91AF919F918F910F900FBE5D
:103380000F901F9018950E944F21F8942FEF87EA15
:1033900091E6215080409040E1F700C0000087E0B6
:1033A00090EBDC0180936F0290937002A093710206
:1033B000B093720288E19CE00FB6F894A8958093D0
:1033C00060000FBE90936000FFCFAF92BF92CF928C
:1033D000DF92EF92FF920F931F93CF93C0E0CC2424
:1033E000C394D12CE82EF12C8C2F0E94C40C5C01CC
:1033F00010E000E0C601002E02C0880F991F0A9459
:10340000E2F78A219B21892B99F40F5F1F4F0D3022
:10341000110581F7CF5FC83039F780E0CF911F9158
:103420000F91FF90EF90DF90CF90BF90AF900895F5
:10343000602F7C2F80E00E946709E816F90629F7C3
:1034400081E0ECCFCF93C82F8CE20E94E51988234E
:1034500021F08C2FCF910C94E51980E0CF91089545
:10346000CF930E94C718811102C00E94AD18C5E613
:1034700008C00E94150C8FE39CE90197F1F700C08A
:103480000000C150B1F789E20E94221A8111EFC0F9
:103490008AE20E94221A81110E94AD1885E00E94E2
:1034A000221A81110E94C3190E94D21880932F0200
:1034B00087E00E94221A882371F08BE10E94221A71
:1034C000882309F4B1C090912F02892F8D7F91FF3D
:1034D000826080932F0280912F020E94D6180E9452
:1034E000E41890E0909361028093600280EE0E9465
:1034F000221A882341F090916002892F8E7F90FFDD
:1035000081608093600289E30E94221A882341F03F
:1035100090916002892F8D7F91FF8260809360027D
:1035200082EE0E94221A882341F090916002892F36
:103530008B7F92FF84608093600286EE0E94221A45
:10354000882341F090916002892F877F93FF8860E4
:103550008093600283EE0E94221A882341F09091AA
:103560006002892F8F7E94FF80618093600285E3E3
:103570000E94221A882341F090916002892F8F7D4A
:1035800095FF80628093600281E30E94221A882363
:1035900041F090916002892F8F7B96FF8064809329
:1035A000600281E10E94221A882341F0909160021A
:1035B000892F97FB87F98058809360028091600281
:1035C0000E94E81887E20E94221AC82F8EE10E940A
:1035D000221A8111C2608FE10E94221A8111C460F7
:1035E00080E20E94221A8111C86081E20E94221AA0
:1035F0008111C06182E20E94221A8111C06283E2BD
:103600000E94221A8111C06484E20E94221A882337
:1036100041F1C0688C2F0E94DF186C2F70E090E0A1
:1036200080E0CF910C9483158EE00E94221A8823AB
:1036300039F090912F02892F8B7F92FF846049CFC0
:1036400080E10E94221A90912F02882329F0892F6D
:10365000877F93FF88603DCF892F8E7F90FF8160A9
:1036600038CFC111D7CF0E94DB18682FD7CFCF91A9
:1036700008958091330280FF12C06091050185E0BA
:10368000689FB001112475956795759567956038A9
:103690007105A8F561157105A1F1862F089581FFC7
:1036A00009C06091050185E0689FB00111247595FE
:1036B0006795EDCF82FF07C06091050185E0689FA7
:1036C000B0011124E4CF209134022223A9F090917B
:1036D00004016091050185E0689FB001112429175C
:1036E000B0F6269FA001279F500D1124692F70E08E
:1036F000CA010E947B25CBCF65E070E0CECF8FE77B
:10370000089581E008958091330280FF0CC060919C
:10371000030170E07595679575956795611571055D
:1037200049F1862F089581FF06C06091030170E082
:1037300075956795F3CF6091030182FD0BC0909161
:1037400034029923A1F06091020180910301961740
:1037500038F0682F70E06038710500F38FE7089546
:10376000899FC001112470E00E947B25F4CF61E0A5
:1037700070E0D7CF81E00895803F31F40E94391B7B
:103780008195809337020895813F19F40E94391B77
:10379000F8CF823F31F40E94391B81958093360225
:1037A0000895833F19F40E94391BF8CF893F29F40B
:1037B0000E94831B8093380208958A3F21F40E945F
:1037C000831B8195F7CF8B3F31F40E94831B81953A
:1037D0008093390208958C3F19F40E94831BF8CF1F
:1037E000843F31F4809135028160809335020895E1
:1037F000853F21F4809135028260F7CF863F21F426
:10380000809135028460F1CF873F21F480913502A9
:103810008860EBCF883F21F4809135028061E5CF4D
:103820008D3F31F48091330281608093330208959B
:103830008E3F21F4809133028260F7CF8F3FB9F73A
:10384000809133028460F1CF803FC1F480913702D0
:1038500087FD109237028091360281110EC080914F
:10386000370281110AC080913802811106C080910F
:103870003902811102C0109234020895813F29F467
:103880008091370218162CF3E6CF90913602823FD2
:1038900029F497FFE0CF10923602DDCF833F19F471
:1038A0001916CCF3D8CF893F39F480913802181615
:1038B00094F610923802CFCF8A3F29F480913802D3
:1038C00087FFC9CFF6CF8B3F39F48091390287FF4C
:1038D000C2CF10923902BFCF8C3F29F480913902B8
:1038E0001816BCF3B8CF843F31F4809135028E7F37
:1038F00080933502B0CF853F21F4809135028D7FD2
:10390000F7CF863F21F4809135028B7FF1CF873F3F
:1039100021F480913502877FEBCF883F21F480919D
:1039200035028F7EE5CF8D3F31F4809133028E7F5B
:103930008093330290CF8E3F21F4809133028D7FAC
:10394000F7CF8F3F09F087CF809133028B7FF0CF85
:1039500085E392E00E94EA0C0E946819909332027B
:103960008093310208951F93CF93DF9380913102AA
:10397000909132020E947419AC019091340220910E
:10398000060130E0911106C0209107018AE0289FCE
:10399000900111244217530780F080913602C091A4
:1039A000370210913802D091390281110AC0C11139
:1039B00078C0111176C0D11174C0DF91CF911F91E1
:1039C00008959F3F19F09F5F90933402181624F4D6
:1039D0000E94391B809336028091360287FF05C012
:1039E0000E94391B8195809336021C1624F40E9494
:1039F000391B809337028091370287FF05C00E94F0
:103A0000391B81958093370260913602662331F12C
:103A1000C0913702CC2311F1062E000C770B880BD6
:103A2000990B0E94822423E333E343E35FE30E9484
:103A3000E6240E944A24609336026C2FCC0F770B49
:103A4000880B990B0E94822423E333E343E35FE373
:103A50000E94E6240E944A2460933702111624F43F
:103A60000E94831B809338028091380287FF05C033
:103A70000E94831B8195809338021D1624F40E94B6
:103A8000831B809339028091390287FF05C00E9411
:103A9000831B819580933902DF91CF911F910C9404
:103AA000A81C9F3F09F08FCFA0CF85E0E5E3F2E0AF
:103AB000DF011D928A95E9F71092340210923302C9
:103AC000089580915A020895CF93DF9300D01F92FA
:103AD000CDB7DEB79C0180916602843019F593E082
:103AE00099833B832A839093E9008FEF9091E800BC
:103AF000815095FD06C095ED9A95F1F70000811172
:103B0000F5CF8091E80085FF0DC050E040E063E014
:103B100070E0CE0101960E94BF1F8091E8008E7771
:103B20008093E8000F900F900F90DF91CF91089550
:103B3000CF93DF9300D01F92CDB7DEB720916602FE
:103B4000243031F522E02983805891099B838A83B0
:103B500083E08093E9008FEF9091E800815095FD1C
:103B600006C095ED9A95F1F700008111F5CF80918F
:103B7000E80085FF0DC050E040E063E070E0CE015A
:103B800001960E94BF1F8091E8008E778093E80025
:103B90000F900F900F90DF91CF9108959C0180912D
:103BA00066028430F9F482E08093E9009FEF80910F
:103BB000E800915085FD06C085ED8A95F1F700007B
:103BC0009111F5CF8091E80085FF0CC050E040E0F6
:103BD00065E070E0C9010E94BF1F8091E8008E7708
:103BE0008093E8000895CF93DF93EC018091660203
:103BF0008430F1F4909112019923E9F090916002E0
:103C000097FF19C08093E9008FEF9091E8008150F1
:103C100095FD06C095E19A95F1F700008111F5CF69
:103C20008091E80050E040E060E270E085FD1AC05D
:103C3000DF91CF91089581E08093E9008FEF90911B
:103C4000E800815095FD06C095ED9A95F1F70000CA
:103C50008111F5CF8091E80085FFEACF50E040E088
:103C600068E070E0CE010E94BF1F8091E8008E776F
:103C70008093E80080E2FE01AAE3B2E001900D9299
:103C80008A95E1F7D5CF80916502811109C00E9424
:103C90004F210E94AC218091E20084608093E20079
:103CA0000895109265020895089508950C943019AE
:103CB00042E061EC81E00E94CD2042E061EC82E0D4
:103CC0000E94CD2042E061EC83E00E94CD2042E2E0
:103CD00061EC84E00C94CD2080916802833009F47B
:103CE00055C030F4813071F1823009F491C00895EB
:103CF0008A3009F47DC08B3009F463C0893009F043
:103D000044C080916702813209F03FC080916B020C
:103D100090916C02009711F00397B9F58091E8003B
:103D2000877F8093E8008091E80082FF2AC080911D
:103D3000F10080935A028091E8008B778093E8002D
:103D40000C94012180916702813AF9F48091E80096
:103D5000877F8093E80080916B0290916C02892BA1
:103D600061F460E28AE392E070E00E940E208091AC
:103D7000E8008B778093E800089560E090E080E0B1
:103D8000F3CF809166028111CECF089580916702B2
:103D9000813AD9F780916B0290916C02892BA9F737
:103DA0008091E800877F8093E8008091E80080FFA1
:103DB000FCCF809112018093F1008091E8008E7712
:103DC000BDCF80916702813201F780916B029091A3
:103DD0006C02892BD1F68091E800877F8093E80000
:103DE0000E94012180916902809312010C94AF110D
:103DF00080916702813249F68091E800877F809345
:103E0000E8000E94012180916A0280935B0208957C
:103E100080916702813A09F0B8CF8091E800877FEE
:103E20008093E8008091E80080FFFCCF80915B02E6
:103E3000C2CF84B7877F84BF0FB6F894A8958091CE
:103E40006000886180936000109260000FBE80E87F
:103E500080936100109261000E94220D0E944F2108
:103E60000E94AC218091E20084608093E20078940B
:103E70000E942E240E94240D88E091E00E94CE0C26
:103E800080916602853019F00E942A0DF9CF0E94B8
:103E9000ED1880916402882399F30E941B198823EE
:103EA00079F30E94A91FECCF292F33272330310546
:103EB00079F158F421303105F1F02230310519F152
:103EC00090E080E030E020E01AC02132310599F125
:103ED00022323105A9F7643098F770E0FB01EE0F4C
:103EE000FF1FE45DFE4F20813181685D7E4FFB0145
:103EF000808190E004C082E190E029E43EE0FA0194
:103F00003183208308958DE690E02CED3DE0F7CFDE
:103F100099278130910561F028F0029789F6ECEA43
:103F2000FDE002C0E8EDFDE0849190E09F01E7CF65
:103F3000E0ECFDE0F9CF643008F0C2CFE62FF0E00E
:103F4000EE0FFF1FEC5CFE4F2081318189E090E095
:103F5000D6CF80E189BD82E189BD09B400FEFDCFE5
:103F60008091D8008F7D8093D8008091E00082609E
:103F70008093E0008091E00081FDFCCF0895AF9236
:103F8000BF92CF92DF92FF920F931F93CF93DF9355
:103F90006C01EB018A010E942021F82E811123C0BF
:103FA0000115110539F0F80180819181C81BD90BE9
:103FB000C80ED91EB12CA12C2097A9F08091E80041
:103FC00085FD22C08091E8008E778093E80001157E
:103FD0001105A1F0F80180819181A80EB91EB1826E
:103FE000A08285E0F82E8F2DDF91CF911F910F9148
:103FF000FF90DF90CF90BF90AF9008950E94202156
:104000008823D1F2F82EEFCFF60181916F018093D2
:10401000F1002197FFEFAF1ABF0ACECFFC018091CC
:104020006D0290916E0286179707A0F061157105D9
:1040300029F49091E8009E779093E80090E0611554
:10404000710551F4911108C08091E80082FF35C0DC
:1040500080E00895BC01F2CF809166028823C9F107
:104060008530C9F18091E80083FD31C08091E8007E
:1040700082FDEACF8091E80080FFE1CF2091F3003C
:104080008091F200322F282F6115710519F0283028
:10409000310558F091E02830310509F090E0209189
:1040A000E8002E772093E800CACF81918093F10039
:1040B000615071092F5F3F4FE7CF809166028823DF
:1040C00041F0853041F08091E80083FFBDCF81E071
:1040D000089582E0089583E00895FC0180916D02C7
:1040E00090916E0286179707A0F06115710529F46B
:1040F0008091E8008E778093E80090E0611571056B
:1041000051F4911108C08091E80082FF36C080E030
:104110000895BC01F2CF809166028823D1F18530E9
:10412000D1F18091E80083FD32C08091E80082FDEA
:10413000EACF8091E80080FFE1CF2091F3008091E9
:10414000F200322F282F6115710519F02830310542
:1041500058F091E02830310509F090E08091E800B6
:104160008E778093E800CACF84918093F1003196D6
:10417000615071092F5F3F4FE6CF8091660288231F
:1041800041F0853041F08091E80083FFBCCF81E0B1
:10419000089582E0089583E00895982F973028F0DD
:1041A0008F708093E90081E008959093E900242FB7
:1041B000762F50E0981731F07091EC002091ED00CF
:1041C0005091F00021FD02C09F5FE8CF3091EB00DD
:1041D0003E7F3093EB003091ED003D7F3093ED005A
:1041E0003091EB0031603093EB007093EC00209342
:1041F000ED005093F0002091EE0027FDE5CF80E028
:1042000008958091670287FF13C08091E80082FFC4
:1042100006C08091E8008B778093E80004C080910D
:1042200066028111F2CF0895809166028823D9F346
:104230008091E80080FFF8CF8091E8008E77ECCF86
:104240002091E4003091E50085E69091EC0090FF2C
:1042500006C09091E80090FF06C080E0089590911C
:10426000E80092FDFACF90916602992391F0953083
:1042700091F09091EB0095FD10C04091E4005091B9
:10428000E5002417350709F381509A01F1F684E01F
:10429000089582E0089583E0089581E008950E94E2
:1042A000BD210E94C521E0EEF0E080818160808325
:1042B000E8EDF0E080818F77808319BCA7EDB0E056
:1042C0008C918E7F8C9380818F7E8083109265028B
:1042D00008950F931F93CF93DF930E94BD210E94F7
:1042E000C521C8EDD0E088818F7788838881806878
:1042F000888388818F7D888319BC10926602109212
:104300006202109264021092630200EE10E0F80163
:1043100080818B7F808388818160888342E060E038
:1043200080E00E94CD20E1EEF0E080818E7F8083EE
:10433000E2EEF0E08081816080838081886080830C
:10434000F80180818E7F8083888180618883DF91FE
:10435000CF911F910F910895E8EDF0E080818F7E5D
:104360008083E7EDF0E080818160808384E082BF1C
:1043700081E0809365020C946921E8EDF0E0808192
:104380008E7F80831092E20008951092DA001092DE
:10439000E10008951F920F920FB60F9211242F93F0
:1043A0003F934F935F936F937F938F939F93AF93BD
:1043B000BF93EF93FF938091E10082FF0BC0809148
:1043C000E20082FF07C08091E1008B7F8093E100D3
:1043D0000E942D248091DA0080FF19C08091D800BE
:1043E00080FF15C08091DA008E7F8093DA00809183
:1043F000D90080FF94C080E189BD82E189BD09B404
:1044000000FEFDCF81E0809366020E94431E8091F2
:10441000E10080FF19C08091E20080FF15C080910B
:10442000E2008E7F8093E2008091E20080618093C1
:10443000E2008091D80080628093D80019BC85E0AA
:10444000809366020E94551E8091E10084FF29C07E
:104450008091E20084FF25C080E189BD82E189BDB1
:1044600009B400FEFDCF8091D8008F7D8093D800E5
:104470008091E1008F7E8093E1008091E2008F7E49
:104480008093E2008091E20081608093E20080915D
:104490006202882309F449C084E0809366020E9486
:1044A000561E8091E10083FF29C08091E20083FFC6
:1044B00025C08091E100877F8093E10082E08093B6
:1044C0006602109262028091E1008E7F8093E1008B
:1044D0008091E2008E7F8093E2008091E200806113
:1044E0008093E20042E060E080E00E94CD20809175
:1044F000F00088608093F0000E94541EFF91EF91BD
:10450000BF91AF919F918F917F916F915F914F91EB
:104510003F912F910F900FBE0F901F90189519BCCF
:10452000109266020E94511E72CF8091E30087FDB7
:1045300002C081E0B2CF83E0B0CF1F920F920FB6DE
:104540000F9211242F933F934F935F936F937F9319
:104550008F939F93AF93BF93CF93EF93FF93C091AC
:10456000E900CF708091EC001092E9008091F0009A
:10457000877F8093F00078940E94D9221092E900FE
:104580008091F00088608093F000C093E900FF9173
:10459000EF91CF91BF91AF919F918F917F916F914B
:1045A0005F914F913F912F910F900FBE0F901F90F1
:1045B00018951F93CF93DF93CDB7DEB7AA970FB6A9
:1045C000F894DEBF0FBECDBFE7E6F2E08091F100C8
:1045D000819322E0EF36F207C9F70E946C1E8091AA
:1045E000E80083FF42C080916702909168029A3090
:1045F00008F03BC0E92FF0E0E050FD4D0C948F2512
:104600000A232E2335232E2335238923AB23352359
:1046100000240D24803879F0823839F580916B02BE
:104620008F708093E9008091EB0085FB882780F9EB
:104630001092E90006C0809163029091640291118A
:1046400082609091E800977F9093E8008093F1005A
:104650001092F1008091E8008E772DC0282F2D7FD9
:1046600021F48823D1F0823059F18091E80083FF52
:104670000AC08091E800877F8093E8008091EB007A
:1046800080628093EB00AA960FB6F894DEBF0FBE4F
:10469000CDBFDF91CF911F91089580916902813044
:1046A00021F7933009F080E0809364021092E900D2
:1046B0008091E800877F8093E8000E940121D5CF98
:1046C000809169028111F2CF80916B028F7069F243
:1046D0008093E9002091EB0020FFE8CF933031F484
:1046E0008091EB0080628093EB00E0CF9091EB0033
:1046F00090619093EB0021E030E001C0220F8A9599
:10470000EAF72093EA001092EA008091EB008860BB
:10471000EACF8111AACF109169021F778091E3003F
:104720008078812B8093E3008091E800877F8093DD
:10473000E8000E9401218091E80080FFFCCF809179
:10474000E30080688093E30083E0111101C082E000
:10475000809366028ACF8058823008F086CF80919D
:10476000690290916A028C3D23E09207A1F583E0F3
:104770008A838AE289834FB7F894DE01139620E09A
:104780003EE051E2E32FF0E050935700E49120FF28
:1047900003C0E295EF703F5FEF708E2F90E0EA303C
:1047A000C0F0C7968D939D932F5F243159F74FBF6B
:1047B0008091E800877F8093E8006AE270E0CE0194
:1047C00001960E940E208091E8008B778093E8008C
:1047D0004CCFC096E7CFAE014F5F5F4F60916B0249
:1047E0000E94541FBC01892B09F43FCF9091E8002F
:1047F000977F9093E80089819A810E946D20E3CF92
:10480000803809F032CF8091E800877F8093E800FC
:10481000809162028093F1001DCF811126CF90918B
:104820006902923008F021CF8091E800877F809361
:10483000E800909362020E94012180916202882325
:1048400031F084E0809366020E94581E0ECF809162
:10485000E30087FDF6CF81E0F5CF0895CF938091F7
:104860006602882399F0C091E900CF708091EC0036
:1048700080FD0EC080E0C82B1092E9008091E80016
:1048800083FD0E94D922CF70C093E900CF91089593
:1048900080E8F1CF0E9451246894B1110C94E02477
:1048A00008950E94C52488F09F5798F0B92F992742
:1048B000B751B0F0E1F0660F771F881F991F1AF00B
:1048C000BA95C9F714C0B13091F00E94DF24B1E06D
:1048D00008950C94DF24672F782F8827B85F39F06C
:1048E000B93FCCF3869577956795B395D9F73EF4A4
:1048F00090958095709561957F4F8F4F9F4F08954C
:10490000E89409C097FB3EF4909580957095619569
:104910007F4F8F4F9F4F9923A9F0F92F96E9BB271F
:104920009395F695879577956795B795F111F8CF9B
:10493000FAF4BB0F11F460FF1BC06F5F7F4F8F4F06
:104940009F4F16C0882311F096E911C0772321F0FC
:104950009EE8872F762F05C0662371F096E8862F94
:1049600070E060E02AF09A95660F771F881FDAF7EB
:10497000880F9695879597F9089557FD9058440F9D
:10498000551F59F05F3F71F04795880F97FB991FAE
:1049900061F09F3F79F0879508951216130614066B
:1049A000551FF2CF4695F1DF08C0161617061806F8
:1049B000991FF1CF86957105610508940895E894D3
:1049C000BB2766277727CB0197F908950E94F92422
:1049D0000C946A250E945C2538F00E94632520F023
:1049E000952311F00C9453250C94592511240C9403
:1049F000E0240E94BD2470F3959FC1F3950F50E011
:104A0000551F629FF001729FBB27F00DB11D639F80
:104A1000AA27F00DB11DAA1F649F6627B00DA11D26
:104A2000661F829F2227B00DA11D621F739FB00DCC
:104A3000A11D621F839FA00D611D221F749F33273C
:104A4000A00D611D231F849F600D211D822F762FD5
:104A50006A2F11249F5750409AF0F1F088234AF0B2
:104A6000EE0FFF1FBB1F661F771F881F915050401E
:104A7000A9F79E3F510580F00C9453250C94E02437
:104A80005F3FE4F3983ED4F3869577956795B795A5
:104A9000F795E7959F5FC1F7FE2B880F911D9695BF
:104AA000879597F9089597F99F6780E870E060E02F
:104AB00008959FEF80EC089500240A9416161706B7
:104AC00018060906089500240A94121613061406FF
:104AD00005060895092E0394000C11F4882352F062
:104AE000BB0F40F4BF2B11F460FF04C06F5F7F4F1A
:104AF0008F4F9F4F089597FB072E16F4009407D011
:104B000077FD09D00E94952507FC05D03EF49095CD
:104B100081959F4F0895709561957F4F0895EE0F91
:104B2000FF1F0590F491E02D0994AA1BBB1B51E1D6
:104B300007C0AA1FBB1FA617B70710F0A61BB70B0D
:104B4000881F991F5A95A9F780959095BC01CD01B2
:104B50000895F999FECF92BD81BDF89A992780B545
:104B60000895A8E1B0E042E050E00C94D125262F52
:104B7000F999FECF92BD81BDF89A019700B4021653
:104B800039F01FBA20BD0FB6F894FA9AF99A0FBE01
:104B900008950196272F0E94B8250C94B725DC01B3
:104BA000CB01FC01F999FECF06C0F2BDE1BDF89A38
:104BB000319600B40D9241505040B8F70895F894E2
:024BC000FFCF25
:104BC2000C022808140A321E611DF31DCE1D981D09
:104BD200641D0134973536F6F7903137963332C675
:104BE2009491939266956730404D3639170FCA0EED
:0C4BF200940E5B0EEE0D070E200E390E27
:00000001FF
